{
    "abi": [
        {
            "type": "constructor",
            "inputs": [
                {
                    "name": "_minimumMintPrice",
                    "type": "uint256",
                    "internalType": "uint256"
                }
            ],
            "stateMutability": "nonpayable"
        },
        {
            "type": "function",
            "name": "MINIMUM_MINT_PRICE",
            "inputs": [],
            "outputs": [
                {
                    "name": "",
                    "type": "uint256",
                    "internalType": "uint256"
                }
            ],
            "stateMutability": "view"
        },
        {
            "type": "function",
            "name": "approve",
            "inputs": [
                {
                    "name": "to",
                    "type": "address",
                    "internalType": "address"
                },
                {
                    "name": "tokenId",
                    "type": "uint256",
                    "internalType": "uint256"
                }
            ],
            "outputs": [],
            "stateMutability": "nonpayable"
        },
        {
            "type": "function",
            "name": "balanceOf",
            "inputs": [
                {
                    "name": "owner",
                    "type": "address",
                    "internalType": "address"
                }
            ],
            "outputs": [
                {
                    "name": "",
                    "type": "uint256",
                    "internalType": "uint256"
                }
            ],
            "stateMutability": "view"
        },
        {
            "type": "function",
            "name": "getApproved",
            "inputs": [
                {
                    "name": "tokenId",
                    "type": "uint256",
                    "internalType": "uint256"
                }
            ],
            "outputs": [
                {
                    "name": "",
                    "type": "address",
                    "internalType": "address"
                }
            ],
            "stateMutability": "view"
        },
        {
            "type": "function",
            "name": "getPlayersLength",
            "inputs": [],
            "outputs": [
                {
                    "name": "",
                    "type": "uint256",
                    "internalType": "uint256"
                }
            ],
            "stateMutability": "view"
        },
        {
            "type": "function",
            "name": "isApprovedForAll",
            "inputs": [
                {
                    "name": "owner",
                    "type": "address",
                    "internalType": "address"
                },
                {
                    "name": "operator",
                    "type": "address",
                    "internalType": "address"
                }
            ],
            "outputs": [
                {
                    "name": "",
                    "type": "bool",
                    "internalType": "bool"
                }
            ],
            "stateMutability": "view"
        },
        {
            "type": "function",
            "name": "mintNFT",
            "inputs": [
                {
                    "name": "tokenURI",
                    "type": "string",
                    "internalType": "string"
                }
            ],
            "outputs": [
                {
                    "name": "",
                    "type": "uint256",
                    "internalType": "uint256"
                }
            ],
            "stateMutability": "payable"
        },
        {
            "type": "function",
            "name": "name",
            "inputs": [],
            "outputs": [
                {
                    "name": "",
                    "type": "string",
                    "internalType": "string"
                }
            ],
            "stateMutability": "view"
        },
        {
            "type": "function",
            "name": "ownerOf",
            "inputs": [
                {
                    "name": "tokenId",
                    "type": "uint256",
                    "internalType": "uint256"
                }
            ],
            "outputs": [
                {
                    "name": "",
                    "type": "address",
                    "internalType": "address"
                }
            ],
            "stateMutability": "view"
        },
        {
            "type": "function",
            "name": "playerTokenCount",
            "inputs": [
                {
                    "name": "",
                    "type": "address",
                    "internalType": "address"
                }
            ],
            "outputs": [
                {
                    "name": "",
                    "type": "uint256",
                    "internalType": "uint256"
                }
            ],
            "stateMutability": "view"
        },
        {
            "type": "function",
            "name": "players",
            "inputs": [
                {
                    "name": "",
                    "type": "uint256",
                    "internalType": "uint256"
                }
            ],
            "outputs": [
                {
                    "name": "",
                    "type": "address",
                    "internalType": "address"
                }
            ],
            "stateMutability": "view"
        },
        {
            "type": "function",
            "name": "safeTransferFrom",
            "inputs": [
                {
                    "name": "from",
                    "type": "address",
                    "internalType": "address"
                },
                {
                    "name": "to",
                    "type": "address",
                    "internalType": "address"
                },
                {
                    "name": "tokenId",
                    "type": "uint256",
                    "internalType": "uint256"
                }
            ],
            "outputs": [],
            "stateMutability": "nonpayable"
        },
        {
            "type": "function",
            "name": "safeTransferFrom",
            "inputs": [
                {
                    "name": "from",
                    "type": "address",
                    "internalType": "address"
                },
                {
                    "name": "to",
                    "type": "address",
                    "internalType": "address"
                },
                {
                    "name": "tokenId",
                    "type": "uint256",
                    "internalType": "uint256"
                },
                {
                    "name": "data",
                    "type": "bytes",
                    "internalType": "bytes"
                }
            ],
            "outputs": [],
            "stateMutability": "nonpayable"
        },
        {
            "type": "function",
            "name": "setApprovalForAll",
            "inputs": [
                {
                    "name": "operator",
                    "type": "address",
                    "internalType": "address"
                },
                {
                    "name": "approved",
                    "type": "bool",
                    "internalType": "bool"
                }
            ],
            "outputs": [],
            "stateMutability": "nonpayable"
        },
        {
            "type": "function",
            "name": "supportsInterface",
            "inputs": [
                {
                    "name": "interfaceId",
                    "type": "bytes4",
                    "internalType": "bytes4"
                }
            ],
            "outputs": [
                {
                    "name": "",
                    "type": "bool",
                    "internalType": "bool"
                }
            ],
            "stateMutability": "view"
        },
        {
            "type": "function",
            "name": "symbol",
            "inputs": [],
            "outputs": [
                {
                    "name": "",
                    "type": "string",
                    "internalType": "string"
                }
            ],
            "stateMutability": "view"
        },
        {
            "type": "function",
            "name": "tokenURI",
            "inputs": [
                {
                    "name": "tokenId",
                    "type": "uint256",
                    "internalType": "uint256"
                }
            ],
            "outputs": [
                {
                    "name": "",
                    "type": "string",
                    "internalType": "string"
                }
            ],
            "stateMutability": "view"
        },
        {
            "type": "function",
            "name": "transferFrom",
            "inputs": [
                {
                    "name": "from",
                    "type": "address",
                    "internalType": "address"
                },
                {
                    "name": "to",
                    "type": "address",
                    "internalType": "address"
                },
                {
                    "name": "tokenId",
                    "type": "uint256",
                    "internalType": "uint256"
                }
            ],
            "outputs": [],
            "stateMutability": "nonpayable"
        },
        {
            "type": "event",
            "name": "Approval",
            "inputs": [
                {
                    "name": "owner",
                    "type": "address",
                    "indexed": true,
                    "internalType": "address"
                },
                {
                    "name": "approved",
                    "type": "address",
                    "indexed": true,
                    "internalType": "address"
                },
                {
                    "name": "tokenId",
                    "type": "uint256",
                    "indexed": true,
                    "internalType": "uint256"
                }
            ],
            "anonymous": false
        },
        {
            "type": "event",
            "name": "ApprovalForAll",
            "inputs": [
                {
                    "name": "owner",
                    "type": "address",
                    "indexed": true,
                    "internalType": "address"
                },
                {
                    "name": "operator",
                    "type": "address",
                    "indexed": true,
                    "internalType": "address"
                },
                {
                    "name": "approved",
                    "type": "bool",
                    "indexed": false,
                    "internalType": "bool"
                }
            ],
            "anonymous": false
        },
        {
            "type": "event",
            "name": "BatchMetadataUpdate",
            "inputs": [
                {
                    "name": "_fromTokenId",
                    "type": "uint256",
                    "indexed": false,
                    "internalType": "uint256"
                },
                {
                    "name": "_toTokenId",
                    "type": "uint256",
                    "indexed": false,
                    "internalType": "uint256"
                }
            ],
            "anonymous": false
        },
        {
            "type": "event",
            "name": "MetadataUpdate",
            "inputs": [
                {
                    "name": "_tokenId",
                    "type": "uint256",
                    "indexed": false,
                    "internalType": "uint256"
                }
            ],
            "anonymous": false
        },
        {
            "type": "event",
            "name": "NFTMintedBy",
            "inputs": [
                {
                    "name": "player",
                    "type": "address",
                    "indexed": true,
                    "internalType": "address"
                }
            ],
            "anonymous": false
        },
        {
            "type": "event",
            "name": "Transfer",
            "inputs": [
                {
                    "name": "from",
                    "type": "address",
                    "indexed": true,
                    "internalType": "address"
                },
                {
                    "name": "to",
                    "type": "address",
                    "indexed": true,
                    "internalType": "address"
                },
                {
                    "name": "tokenId",
                    "type": "uint256",
                    "indexed": true,
                    "internalType": "uint256"
                }
            ],
            "anonymous": false
        },
        {
            "type": "error",
            "name": "ERC721IncorrectOwner",
            "inputs": [
                {
                    "name": "sender",
                    "type": "address",
                    "internalType": "address"
                },
                {
                    "name": "tokenId",
                    "type": "uint256",
                    "internalType": "uint256"
                },
                {
                    "name": "owner",
                    "type": "address",
                    "internalType": "address"
                }
            ]
        },
        {
            "type": "error",
            "name": "ERC721InsufficientApproval",
            "inputs": [
                {
                    "name": "operator",
                    "type": "address",
                    "internalType": "address"
                },
                {
                    "name": "tokenId",
                    "type": "uint256",
                    "internalType": "uint256"
                }
            ]
        },
        {
            "type": "error",
            "name": "ERC721InvalidApprover",
            "inputs": [
                {
                    "name": "approver",
                    "type": "address",
                    "internalType": "address"
                }
            ]
        },
        {
            "type": "error",
            "name": "ERC721InvalidOperator",
            "inputs": [
                {
                    "name": "operator",
                    "type": "address",
                    "internalType": "address"
                }
            ]
        },
        {
            "type": "error",
            "name": "ERC721InvalidOwner",
            "inputs": [
                {
                    "name": "owner",
                    "type": "address",
                    "internalType": "address"
                }
            ]
        },
        {
            "type": "error",
            "name": "ERC721InvalidReceiver",
            "inputs": [
                {
                    "name": "receiver",
                    "type": "address",
                    "internalType": "address"
                }
            ]
        },
        {
            "type": "error",
            "name": "ERC721InvalidSender",
            "inputs": [
                {
                    "name": "sender",
                    "type": "address",
                    "internalType": "address"
                }
            ]
        },
        {
            "type": "error",
            "name": "ERC721NonexistentToken",
            "inputs": [
                {
                    "name": "tokenId",
                    "type": "uint256",
                    "internalType": "uint256"
                }
            ]
        }
    ],
    "bytecode": {
        "object": "0x608060405234801561000f575f5ffd5b50604051612bc6380380612bc68339818101604052810190610031919061010a565b6040518060400160405280600a81526020017f4e46544d696e74696e67000000000000000000000000000000000000000000008152506040518060400160405280600481526020017f4d4e465400000000000000000000000000000000000000000000000000000000815250815f90816100ab9190610369565b5080600190816100bb9190610369565b50505080600781905550600160088190555050610438565b5f5ffd5b5f819050919050565b6100e9816100d7565b81146100f3575f5ffd5b50565b5f81519050610104816100e0565b92915050565b5f6020828403121561011f5761011e6100d3565b5b5f61012c848285016100f6565b91505092915050565b5f81519050919050565b7f4e487b71000000000000000000000000000000000000000000000000000000005f52604160045260245ffd5b7f4e487b71000000000000000000000000000000000000000000000000000000005f52602260045260245ffd5b5f60028204905060018216806101b057607f821691505b6020821081036101c3576101c261016c565b5b50919050565b5f819050815f5260205f209050919050565b5f6020601f8301049050919050565b5f82821b905092915050565b5f600883026102257fffffffffffffffffffffffffffffffffffffffffffffffffffffffffffffffff826101ea565b61022f86836101ea565b95508019841693508086168417925050509392505050565b5f819050919050565b5f61026a610265610260846100d7565b610247565b6100d7565b9050919050565b5f819050919050565b61028383610250565b61029761028f82610271565b8484546101f6565b825550505050565b5f5f905090565b6102ae61029f565b6102b981848461027a565b505050565b5b818110156102dc576102d15f826102a6565b6001810190506102bf565b5050565b601f821115610321576102f2816101c9565b6102fb846101db565b8101602085101561030a578190505b61031e610316856101db565b8301826102be565b50505b505050565b5f82821c905092915050565b5f6103415f1984600802610326565b1980831691505092915050565b5f6103598383610332565b9150826002028217905092915050565b61037282610135565b67ffffffffffffffff81111561038b5761038a61013f565b5b6103958254610199565b6103a08282856102e0565b5f60209050601f8311600181146103d1575f84156103bf578287015190505b6103c9858261034e565b865550610430565b601f1984166103df866101c9565b5f5b82811015610406578489015182556001820191506020850194506020810190506103e1565b86831015610423578489015161041f601f891682610332565b8355505b6001600288020188555050505b505050505050565b612781806104455f395ff3fe608060405260043610610108575f3560e01c806395d89b4111610094578063cd61386d11610063578063cd61386d1461037e578063e985e9c5146103a8578063eb1924c5146103e4578063f71d96cb14610420578063fb37e8831461045c57610108565b806395d89b41146102c8578063a22cb465146102f2578063b88d4fde1461031a578063c87b56dd1461034257610108565b806323b872dd116100db57806323b872dd146101d65780632d51e4ce146101fe57806342842e0e146102285780636352211e1461025057806370a082311461028c57610108565b806301ffc9a71461010c57806306fdde0314610148578063081812fc14610172578063095ea7b3146101ae575b5f5ffd5b348015610117575f5ffd5b50610132600480360381019061012d9190611b94565b61048c565b60405161013f9190611bd9565b60405180910390f35b348015610153575f5ffd5b5061015c6104ec565b6040516101699190611c62565b60405180910390f35b34801561017d575f5ffd5b5061019860048036038101906101939190611cb5565b61057b565b6040516101a59190611d1f565b60405180910390f35b3480156101b9575f5ffd5b506101d460048036038101906101cf9190611d62565b610596565b005b3480156101e1575f5ffd5b506101fc60048036038101906101f79190611da0565b6105ac565b005b348015610209575f5ffd5b506102126106ab565b60405161021f9190611dff565b60405180910390f35b348015610233575f5ffd5b5061024e60048036038101906102499190611da0565b6106b1565b005b34801561025b575f5ffd5b5061027660048036038101906102719190611cb5565b6106d0565b6040516102839190611d1f565b60405180910390f35b348015610297575f5ffd5b506102b260048036038101906102ad9190611e18565b6106e1565b6040516102bf9190611dff565b60405180910390f35b3480156102d3575f5ffd5b506102dc610797565b6040516102e99190611c62565b60405180910390f35b3480156102fd575f5ffd5b5061031860048036038101906103139190611e6d565b610827565b005b348015610325575f5ffd5b50610340600480360381019061033b9190611fd7565b61083d565b005b34801561034d575f5ffd5b5061036860048036038101906103639190611cb5565b610862565b6040516103759190611c62565b60405180910390f35b348015610389575f5ffd5b5061039261096d565b60405161039f9190611dff565b60405180910390f35b3480156103b3575f5ffd5b506103ce60048036038101906103c99190612057565b610979565b6040516103db9190611bd9565b60405180910390f35b3480156103ef575f5ffd5b5061040a60048036038101906104059190611e18565b610a07565b6040516104179190611dff565b60405180910390f35b34801561042b575f5ffd5b5061044660048036038101906104419190611cb5565b610a1c565b6040516104539190611d1f565b60405180910390f35b61047660048036038101906104719190612133565b610a57565b6040516104839190611dff565b60405180910390f35b5f634906490660e01b7bffffffffffffffffffffffffffffffffffffffffffffffffffffffff1916827bffffffffffffffffffffffffffffffffffffffffffffffffffffffff191614806104e557506104e482610c8d565b5b9050919050565b60605f80546104fa906121a7565b80601f0160208091040260200160405190810160405280929190818152602001828054610526906121a7565b80156105715780601f1061054857610100808354040283529160200191610571565b820191905f5260205f20905b81548152906001019060200180831161055457829003601f168201915b5050505050905090565b5f61058582610d6e565b5061058f82610df4565b9050919050565b6105a882826105a3610e2d565b610e34565b5050565b5f73ffffffffffffffffffffffffffffffffffffffff168273ffffffffffffffffffffffffffffffffffffffff160361061c575f6040517f64a0ae920000000000000000000000000000000000000000000000000000000081526004016106139190611d1f565b60405180910390fd5b5f61062f838361062a610e2d565b610e46565b90508373ffffffffffffffffffffffffffffffffffffffff168173ffffffffffffffffffffffffffffffffffffffff16146106a5578382826040517f64283d7b00000000000000000000000000000000000000000000000000000000815260040161069c939291906121d7565b60405180910390fd5b50505050565b60075481565b6106cb83838360405180602001604052805f81525061083d565b505050565b5f6106da82610d6e565b9050919050565b5f5f73ffffffffffffffffffffffffffffffffffffffff168273ffffffffffffffffffffffffffffffffffffffff1603610752575f6040517f89c62b640000000000000000000000000000000000000000000000000000000081526004016107499190611d1f565b60405180910390fd5b60035f8373ffffffffffffffffffffffffffffffffffffffff1673ffffffffffffffffffffffffffffffffffffffff1681526020019081526020015f20549050919050565b6060600180546107a6906121a7565b80601f01602080910402602001604051908101604052809291908181526020018280546107d2906121a7565b801561081d5780601f106107f45761010080835404028352916020019161081d565b820191905f5260205f20905b81548152906001019060200180831161080057829003601f168201915b5050505050905090565b610839610832610e2d565b8383611051565b5050565b6108488484846105ac565b61085c610853610e2d565b858585856111ba565b50505050565b606061086d82610d6e565b505f60065f8481526020019081526020015f20805461088b906121a7565b80601f01602080910402602001604051908101604052809291908181526020018280546108b7906121a7565b80156109025780601f106108d957610100808354040283529160200191610902565b820191905f5260205f20905b8154815290600101906020018083116108e557829003601f168201915b505050505090505f610912611366565b90505f815103610926578192505050610968565b5f8251111561095a578082604051602001610942929190612246565b60405160208183030381529060405292505050610968565b6109638461137c565b925050505b919050565b5f600980549050905090565b5f60055f8473ffffffffffffffffffffffffffffffffffffffff1673ffffffffffffffffffffffffffffffffffffffff1681526020019081526020015f205f8373ffffffffffffffffffffffffffffffffffffffff1673ffffffffffffffffffffffffffffffffffffffff1681526020019081526020015f205f9054906101000a900460ff16905092915050565b600a602052805f5260405f205f915090505481565b60098181548110610a2b575f80fd5b905f5260205f20015f915054906101000a900473ffffffffffffffffffffffffffffffffffffffff1681565b5f600754341015610a9d576040517f08c379a0000000000000000000000000000000000000000000000000000000008152600401610a94906122b3565b60405180910390fd5b6005600a5f3373ffffffffffffffffffffffffffffffffffffffff1673ffffffffffffffffffffffffffffffffffffffff1681526020019081526020015f205410610b1d576040517f08c379a0000000000000000000000000000000000000000000000000000000008152600401610b149061231b565b60405180910390fd5b5f60085f815480929190610b3090612366565b919050559050610b4033826113e2565b610b4a81846114d5565b5f600a5f3373ffffffffffffffffffffffffffffffffffffffff1673ffffffffffffffffffffffffffffffffffffffff1681526020019081526020015f205403610bef57600933908060018154018082558091505060019003905f5260205f20015f9091909190916101000a81548173ffffffffffffffffffffffffffffffffffffffff021916908373ffffffffffffffffffffffffffffffffffffffff1602179055505b600a5f3373ffffffffffffffffffffffffffffffffffffffff1673ffffffffffffffffffffffffffffffffffffffff1681526020019081526020015f205f815480929190610c3c90612366565b91905055503373ffffffffffffffffffffffffffffffffffffffff167faa102f6f0b0c4bfb54cd99c324504990d974e22495bc38306c190eb2ccb0ad1660405160405180910390a280915050919050565b5f7f80ac58cd000000000000000000000000000000000000000000000000000000007bffffffffffffffffffffffffffffffffffffffffffffffffffffffff1916827bffffffffffffffffffffffffffffffffffffffffffffffffffffffff19161480610d5757507f5b5e139f000000000000000000000000000000000000000000000000000000007bffffffffffffffffffffffffffffffffffffffffffffffffffffffff1916827bffffffffffffffffffffffffffffffffffffffffffffffffffffffff1916145b80610d675750610d668261152f565b5b9050919050565b5f5f610d7983611598565b90505f73ffffffffffffffffffffffffffffffffffffffff168173ffffffffffffffffffffffffffffffffffffffff1603610deb57826040517f7e273289000000000000000000000000000000000000000000000000000000008152600401610de29190611dff565b60405180910390fd5b80915050919050565b5f60045f8381526020019081526020015f205f9054906101000a900473ffffffffffffffffffffffffffffffffffffffff169050919050565b5f33905090565b610e4183838360016115d1565b505050565b5f5f610e5184611598565b90505f73ffffffffffffffffffffffffffffffffffffffff168373ffffffffffffffffffffffffffffffffffffffff1614610e9257610e91818486611790565b5b5f73ffffffffffffffffffffffffffffffffffffffff168173ffffffffffffffffffffffffffffffffffffffff1614610f1d57610ed15f855f5f6115d1565b600160035f8373ffffffffffffffffffffffffffffffffffffffff1673ffffffffffffffffffffffffffffffffffffffff1681526020019081526020015f205f82825403925050819055505b5f73ffffffffffffffffffffffffffffffffffffffff168573ffffffffffffffffffffffffffffffffffffffff1614610f9c57600160035f8773ffffffffffffffffffffffffffffffffffffffff1673ffffffffffffffffffffffffffffffffffffffff1681526020019081526020015f205f82825401925050819055505b8460025f8681526020019081526020015f205f6101000a81548173ffffffffffffffffffffffffffffffffffffffff021916908373ffffffffffffffffffffffffffffffffffffffff160217905550838573ffffffffffffffffffffffffffffffffffffffff168273ffffffffffffffffffffffffffffffffffffffff167fddf252ad1be2c89b69c2b068fc378daa952ba7f163c4a11628f55a4df523b3ef60405160405180910390a4809150509392505050565b5f73ffffffffffffffffffffffffffffffffffffffff168273ffffffffffffffffffffffffffffffffffffffff16036110c157816040517f5b08ba180000000000000000000000000000000000000000000000000000000081526004016110b89190611d1f565b60405180910390fd5b8060055f8573ffffffffffffffffffffffffffffffffffffffff1673ffffffffffffffffffffffffffffffffffffffff1681526020019081526020015f205f8473ffffffffffffffffffffffffffffffffffffffff1673ffffffffffffffffffffffffffffffffffffffff1681526020019081526020015f205f6101000a81548160ff0219169083151502179055508173ffffffffffffffffffffffffffffffffffffffff168373ffffffffffffffffffffffffffffffffffffffff167f17307eab39ab6107e8899845ad3d59bd9653f200f220920489ca2b5937696c31836040516111ad9190611bd9565b60405180910390a3505050565b5f8373ffffffffffffffffffffffffffffffffffffffff163b111561135f578273ffffffffffffffffffffffffffffffffffffffff1663150b7a02868685856040518563ffffffff1660e01b815260040161121894939291906123ff565b6020604051808303815f875af192505050801561125357506040513d601f19601f82011682018060405250810190611250919061245d565b60015b6112d4573d805f8114611281576040519150601f19603f3d011682016040523d82523d5f602084013e611286565b606091505b505f8151036112cc57836040517f64a0ae920000000000000000000000000000000000000000000000000000000081526004016112c39190611d1f565b60405180910390fd5b805181602001fd5b63150b7a0260e01b7bffffffffffffffffffffffffffffffffffffffffffffffffffffffff1916817bffffffffffffffffffffffffffffffffffffffffffffffffffffffff19161461135d57836040517f64a0ae920000000000000000000000000000000000000000000000000000000081526004016113549190611d1f565b60405180910390fd5b505b5050505050565b606060405180602001604052805f815250905090565b606061138782610d6e565b505f611391611366565b90505f8151116113af5760405180602001604052805f8152506113da565b806113b984611853565b6040516020016113ca929190612246565b6040516020818303038152906040525b915050919050565b5f73ffffffffffffffffffffffffffffffffffffffff168273ffffffffffffffffffffffffffffffffffffffff1603611452575f6040517f64a0ae920000000000000000000000000000000000000000000000000000000081526004016114499190611d1f565b60405180910390fd5b5f61145e83835f610e46565b90505f73ffffffffffffffffffffffffffffffffffffffff168173ffffffffffffffffffffffffffffffffffffffff16146114d0575f6040517f73c6ac6e0000000000000000000000000000000000000000000000000000000081526004016114c79190611d1f565b60405180910390fd5b505050565b8060065f8481526020019081526020015f2090816114f39190612628565b507ff8e1a15aba9398e019f0b49df1a4fde98ee17ae345cb5f6b5e2c27f5033e8ce7826040516115239190611dff565b60405180910390a15050565b5f7f01ffc9a7000000000000000000000000000000000000000000000000000000007bffffffffffffffffffffffffffffffffffffffffffffffffffffffff1916827bffffffffffffffffffffffffffffffffffffffffffffffffffffffff1916149050919050565b5f60025f8381526020019081526020015f205f9054906101000a900473ffffffffffffffffffffffffffffffffffffffff169050919050565b808061160957505f73ffffffffffffffffffffffffffffffffffffffff168273ffffffffffffffffffffffffffffffffffffffff1614155b1561173b575f61161884610d6e565b90505f73ffffffffffffffffffffffffffffffffffffffff168373ffffffffffffffffffffffffffffffffffffffff161415801561168257508273ffffffffffffffffffffffffffffffffffffffff168173ffffffffffffffffffffffffffffffffffffffff1614155b801561169557506116938184610979565b155b156116d757826040517fa9fbf51f0000000000000000000000000000000000000000000000000000000081526004016116ce9190611d1f565b60405180910390fd5b811561173957838573ffffffffffffffffffffffffffffffffffffffff168273ffffffffffffffffffffffffffffffffffffffff167f8c5be1e5ebec7d5bd14f71427d1e84f3dd0314c0f7b2291e5b200ac8c7c3b92560405160405180910390a45b505b8360045f8581526020019081526020015f205f6101000a81548173ffffffffffffffffffffffffffffffffffffffff021916908373ffffffffffffffffffffffffffffffffffffffff16021790555050505050565b61179b83838361191d565b61184e575f73ffffffffffffffffffffffffffffffffffffffff168373ffffffffffffffffffffffffffffffffffffffff160361180f57806040517f7e2732890000000000000000000000000000000000000000000000000000000081526004016118069190611dff565b60405180910390fd5b81816040517f177e802f0000000000000000000000000000000000000000000000000000000081526004016118459291906126f7565b60405180910390fd5b505050565b60605f6001611861846119dd565b0190505f8167ffffffffffffffff81111561187f5761187e611eb3565b5b6040519080825280601f01601f1916602001820160405280156118b15781602001600182028036833780820191505090505b5090505f82602001820190505b600115611912578080600190039150507f3031323334353637383961626364656600000000000000000000000000000000600a86061a8153600a85816119075761190661271e565b5b0494505f85036118be575b819350505050919050565b5f5f73ffffffffffffffffffffffffffffffffffffffff168373ffffffffffffffffffffffffffffffffffffffff16141580156119d457508273ffffffffffffffffffffffffffffffffffffffff168473ffffffffffffffffffffffffffffffffffffffff16148061199557506119948484610979565b5b806119d357508273ffffffffffffffffffffffffffffffffffffffff166119bb83610df4565b73ffffffffffffffffffffffffffffffffffffffff16145b5b90509392505050565b5f5f5f90507a184f03e93ff9f4daa797ed6e38ed64bf6a1f0100000000000000008310611a39577a184f03e93ff9f4daa797ed6e38ed64bf6a1f0100000000000000008381611a2f57611a2e61271e565b5b0492506040810190505b6d04ee2d6d415b85acef81000000008310611a76576d04ee2d6d415b85acef81000000008381611a6c57611a6b61271e565b5b0492506020810190505b662386f26fc100008310611aa557662386f26fc100008381611a9b57611a9a61271e565b5b0492506010810190505b6305f5e1008310611ace576305f5e1008381611ac457611ac361271e565b5b0492506008810190505b6127108310611af3576127108381611ae957611ae861271e565b5b0492506004810190505b60648310611b165760648381611b0c57611b0b61271e565b5b0492506002810190505b600a8310611b25576001810190505b80915050919050565b5f604051905090565b5f5ffd5b5f5ffd5b5f7fffffffff0000000000000000000000000000000000000000000000000000000082169050919050565b611b7381611b3f565b8114611b7d575f5ffd5b50565b5f81359050611b8e81611b6a565b92915050565b5f60208284031215611ba957611ba8611b37565b5b5f611bb684828501611b80565b91505092915050565b5f8115159050919050565b611bd381611bbf565b82525050565b5f602082019050611bec5f830184611bca565b92915050565b5f81519050919050565b5f82825260208201905092915050565b8281835e5f83830152505050565b5f601f19601f8301169050919050565b5f611c3482611bf2565b611c3e8185611bfc565b9350611c4e818560208601611c0c565b611c5781611c1a565b840191505092915050565b5f6020820190508181035f830152611c7a8184611c2a565b905092915050565b5f819050919050565b611c9481611c82565b8114611c9e575f5ffd5b50565b5f81359050611caf81611c8b565b92915050565b5f60208284031215611cca57611cc9611b37565b5b5f611cd784828501611ca1565b91505092915050565b5f73ffffffffffffffffffffffffffffffffffffffff82169050919050565b5f611d0982611ce0565b9050919050565b611d1981611cff565b82525050565b5f602082019050611d325f830184611d10565b92915050565b611d4181611cff565b8114611d4b575f5ffd5b50565b5f81359050611d5c81611d38565b92915050565b5f5f60408385031215611d7857611d77611b37565b5b5f611d8585828601611d4e565b9250506020611d9685828601611ca1565b9150509250929050565b5f5f5f60608486031215611db757611db6611b37565b5b5f611dc486828701611d4e565b9350506020611dd586828701611d4e565b9250506040611de686828701611ca1565b9150509250925092565b611df981611c82565b82525050565b5f602082019050611e125f830184611df0565b92915050565b5f60208284031215611e2d57611e2c611b37565b5b5f611e3a84828501611d4e565b91505092915050565b611e4c81611bbf565b8114611e56575f5ffd5b50565b5f81359050611e6781611e43565b92915050565b5f5f60408385031215611e8357611e82611b37565b5b5f611e9085828601611d4e565b9250506020611ea185828601611e59565b9150509250929050565b5f5ffd5b5f5ffd5b7f4e487b71000000000000000000000000000000000000000000000000000000005f52604160045260245ffd5b611ee982611c1a565b810181811067ffffffffffffffff82111715611f0857611f07611eb3565b5b80604052505050565b5f611f1a611b2e565b9050611f268282611ee0565b919050565b5f67ffffffffffffffff821115611f4557611f44611eb3565b5b611f4e82611c1a565b9050602081019050919050565b828183375f83830152505050565b5f611f7b611f7684611f2b565b611f11565b905082815260208101848484011115611f9757611f96611eaf565b5b611fa2848285611f5b565b509392505050565b5f82601f830112611fbe57611fbd611eab565b5b8135611fce848260208601611f69565b91505092915050565b5f5f5f5f60808587031215611fef57611fee611b37565b5b5f611ffc87828801611d4e565b945050602061200d87828801611d4e565b935050604061201e87828801611ca1565b925050606085013567ffffffffffffffff81111561203f5761203e611b3b565b5b61204b87828801611faa565b91505092959194509250565b5f5f6040838503121561206d5761206c611b37565b5b5f61207a85828601611d4e565b925050602061208b85828601611d4e565b9150509250929050565b5f67ffffffffffffffff8211156120af576120ae611eb3565b5b6120b882611c1a565b9050602081019050919050565b5f6120d76120d284612095565b611f11565b9050828152602081018484840111156120f3576120f2611eaf565b5b6120fe848285611f5b565b509392505050565b5f82601f83011261211a57612119611eab565b5b813561212a8482602086016120c5565b91505092915050565b5f6020828403121561214857612147611b37565b5b5f82013567ffffffffffffffff81111561216557612164611b3b565b5b61217184828501612106565b91505092915050565b7f4e487b71000000000000000000000000000000000000000000000000000000005f52602260045260245ffd5b5f60028204905060018216806121be57607f821691505b6020821081036121d1576121d061217a565b5b50919050565b5f6060820190506121ea5f830186611d10565b6121f76020830185611df0565b6122046040830184611d10565b949350505050565b5f81905092915050565b5f61222082611bf2565b61222a818561220c565b935061223a818560208601611c0c565b80840191505092915050565b5f6122518285612216565b915061225d8284612216565b91508190509392505050565b7f496e73756666696369656e7420455448000000000000000000000000000000005f82015250565b5f61229d601083611bfc565b91506122a882612269565b602082019050919050565b5f6020820190508181035f8301526122ca81612291565b9050919050565b7f4d696e74206c696d6974207265616368656400000000000000000000000000005f82015250565b5f612305601283611bfc565b9150612310826122d1565b602082019050919050565b5f6020820190508181035f830152612332816122f9565b9050919050565b7f4e487b71000000000000000000000000000000000000000000000000000000005f52601160045260245ffd5b5f61237082611c82565b91507fffffffffffffffffffffffffffffffffffffffffffffffffffffffffffffffff82036123a2576123a1612339565b5b600182019050919050565b5f81519050919050565b5f82825260208201905092915050565b5f6123d1826123ad565b6123db81856123b7565b93506123eb818560208601611c0c565b6123f481611c1a565b840191505092915050565b5f6080820190506124125f830187611d10565b61241f6020830186611d10565b61242c6040830185611df0565b818103606083015261243e81846123c7565b905095945050505050565b5f8151905061245781611b6a565b92915050565b5f6020828403121561247257612471611b37565b5b5f61247f84828501612449565b91505092915050565b5f819050815f5260205f209050919050565b5f6020601f8301049050919050565b5f82821b905092915050565b5f600883026124e47fffffffffffffffffffffffffffffffffffffffffffffffffffffffffffffffff826124a9565b6124ee86836124a9565b95508019841693508086168417925050509392505050565b5f819050919050565b5f61252961252461251f84611c82565b612506565b611c82565b9050919050565b5f819050919050565b6125428361250f565b61255661254e82612530565b8484546124b5565b825550505050565b5f5f905090565b61256d61255e565b612578818484612539565b505050565b5b8181101561259b576125905f82612565565b60018101905061257e565b5050565b601f8211156125e0576125b181612488565b6125ba8461249a565b810160208510156125c9578190505b6125dd6125d58561249a565b83018261257d565b50505b505050565b5f82821c905092915050565b5f6126005f19846008026125e5565b1980831691505092915050565b5f61261883836125f1565b9150826002028217905092915050565b61263182611bf2565b67ffffffffffffffff81111561264a57612649611eb3565b5b61265482546121a7565b61265f82828561259f565b5f60209050601f831160018114612690575f841561267e578287015190505b612688858261260d565b8655506126ef565b601f19841661269e86612488565b5f5b828110156126c5578489015182556001820191506020850194506020810190506126a0565b868310156126e257848901516126de601f8916826125f1565b8355505b6001600288020188555050505b505050505050565b5f60408201905061270a5f830185611d10565b6127176020830184611df0565b9392505050565b7f4e487b71000000000000000000000000000000000000000000000000000000005f52601260045260245ffdfea26469706673582212209e2a9007f05249d726e67f9ab88ea0db3c4a3f15ddbaf4ebfcdaddadf6ad0e3064736f6c634300081c0033",
        "linkReferences": {}
    },
    "methodIdentifiers": {
        "MINIMUM_MINT_PRICE()": "2d51e4ce",
        "approve(address,uint256)": "095ea7b3",
        "balanceOf(address)": "70a08231",
        "getApproved(uint256)": "081812fc",
        "getPlayersLength()": "cd61386d",
        "isApprovedForAll(address,address)": "e985e9c5",
        "mintNFT(string)": "fb37e883",
        "name()": "06fdde03",
        "ownerOf(uint256)": "6352211e",
        "playerTokenCount(address)": "eb1924c5",
        "players(uint256)": "f71d96cb",
        "safeTransferFrom(address,address,uint256)": "42842e0e",
        "safeTransferFrom(address,address,uint256,bytes)": "b88d4fde",
        "setApprovalForAll(address,bool)": "a22cb465",
        "supportsInterface(bytes4)": "01ffc9a7",
        "symbol()": "95d89b41",
        "tokenURI(uint256)": "c87b56dd",
        "transferFrom(address,address,uint256)": "23b872dd"
    },
    "id": 37
}